:020000040800F2
:10000000F80B0020B9010008A3350008712F000883
:10001000A1350008C123000899370008000000003E
:10002000000000000000000000000000A7350008EC
:10003000C323000800000000A5350008A93500080A
:10004000D3010008D3010008D3010008D301000840
:10005000D3010008D3010008D3010008D301000830
:10006000D3010008D3010008D3010008D301000820
:10007000D3010008D3010008D3010008D301000810
:10008000D3010008D3010008D3010008D301000800
:10009000D3010008D3010008D3010008D3010008F0
:1000A000D3010008D3010008D3010008D3010008E0
:1000B000D3010008D3010008D3010008D3010008D0
:1000C000D3010008D3010008D3010008D3010008C0
:1000D000D30100088737000889370008D3010008DA
:1000E000D3010008D3010008D301000800F002F892
:1000F00000F053F80AA090E8000C82448344AAF16F
:100100000107DA4501D100F048F8AFF2090EBAE86C
:100110000F0013F0010F18BFFB1A43F0010318473B
:10012000286B0000486B0000103A24BF78C878C1E3
:10013000FAD8520724BF30C830C144BF04680C60ED
:10014000704700000023002400250026103A28BF35
:1001500078C1FBD8520728BF30C148BF0B60704739
:10016000662906F07E80752900F09480732900F0DE
:10017000F285002070471FB500F03AFB0400002014
:10018000002105F00BF9401C60600020002105F003
:100190001BF9E0601FBD10B510BD00F0DFFF114678
:1001A000FFF7E9FF04F03CFD01F088FA03B4FFF724
:1001B000F2FF03BC01F0B6FC09488047094800473C
:1001C000FEE7FEE7FEE7FEE7FEE7FEE7FEE7FEE707
:1001D000FEE7FEE704480549054A064B7047000064
:1001E0000B360008ED000008F8050020F80B002091
:1001F000F8070020F807002010B500F0F9FA001DFC
:1002000010BD00BF995100000FB47CB50C0009AAC5
:10021000009001D02044401E084B7B446946019069
:10022000089800F066FD05461CB10020694600F004
:1002300073FD28467CBC5DF814FB0000050B000034
:1002400070B50C460546012A05D02878800600D5F1
:10025000EA69002302E0012305E05B1C934202D21D
:10026000E05C0028F9D1A869E618C01AA861286ADC
:10027000184428622846AFF3008004E0D5E9012144
:1002800014F8010B9047B442F8D32846AFF300802E
:1002900070BD00002DE9F041064600241068752964
:1002A000314616A510D0AFF30080002802DA404294
:1002B00013A507E031688A0701D512A502E04907B6
:1002C00004D511A5012401E0AFF3008000210A222A
:1002D00006F1240709E0B0FBF2FCB0FBF2F302FBED
:1002E0001C00303078541846491C0028F3D12346AE
:1002F0002A463046BDE8F04100F08DBA000000000B
:100300002D0000002B000000200000002DE9F04728
:100310004FF0000A89460446C0F820A02046E16854
:100320008847002876D0252806D0D4E901219047B7
:10033000206A401C2062F1E7E168204600268847D9
:10034000C4F81CA005460027C4F818A02A2D09D01F
:10035000284603F0DEFD38B304EB8708303DC8F8CB
:10036000185019E059F8041B204604EB87029161EC
:10037000E1688847012F054618D1E069002820DA96
:1003800026F020061DE0D8F8180000EB800005EBF1
:1003900040003038C8F818002046E1688847054614
:1003A00003F0B7FD0028EED1012F0AD02E2D08D181
:1003B0002046E16888477F1C0546022F46F020064C
:1003C000C4DBA069002803DA404246F00106A061C0
:1003D000F00701D026F010066C2D0AD0682D08D049
:1003E0004C2D39D06A2D35D0742D35D07A2D33D09F
:1003F00016E0E1682F4620468847B84205460AD1F4
:100400006C2F27D04FF48060E16806432046884770
:10041000054605E027E06C2F1AD04FF480700643A4
:100420000DB3A5F14100192802D8203546F4006625
:100430004A462946204626604E46FFF791FE80B187
:1004400001280BD0F61D26F0070000F1080965E72A
:100450004020E4E78020D7E70020D5E706F1040933
:100460005CE7284661E7206ABDE8F08770B506467C
:1004700000F0C2F90468054630460A22002100F067
:10048000C1FC2C6070BD401ECAB210F8011F8A4228
:1004900002D00029F9D10020704730B505460B463F
:1004A0002A4613F8014B12F8010B08B1A042F8D00C
:1004B0001CB1002802D06D1CF1E7284630BD10B5F4
:1004C000431C02E010F8011B71B18107FAD14FF013
:1004D000013202C88C1A8C4314EAC211F9D0C01A36
:1004E0000A0603D0C01E10BDC01A10BD0A0401D0F8
:1004F000801E10BD0902FCD0401E10BD40EA010361
:1005000070B59B072ED14FF00136042A2AD308C8B4
:1005100010C99D1B9D43121F15EAC61517D0D8B2EE
:10052000E1B2401A50EA056110D198B2A1B2401A66
:1005300050EA05410AD123F07F4024F07F41401A60
:1005400050EA052102D1180EA0EB146070BDA34241
:10055000DBD018BA21BA884201D9012070BD4FF012
:10056000FF3070BD0AB9002070BD10F8013B11F8D2
:10057000014B63B1A3420AD1521E08D010F8013BCF
:1005800011F8014B1BB1A34201D1521EEDD1181B32
:1005900070BD032A40F2308010F0030C00F015808B
:1005A00011F8013BBCF1020F624498BF11F801CB76
:1005B00000F8013B38BF11F8013BA2F1040298BFDB
:1005C00000F801CB38BF00F8013B11F0030300F045
:1005D0002580083AC0F0088051F8043B083A51F8E9
:1005E00004CBA0E80810F5E7121D5CBF51F8043BEE
:1005F00040F8043BAFF30080D20724BF11F8013B61
:1006000011F801CB48BF11F8012B24BF00F8013BC2
:1006100000F801CB48BF00F8012B704710B5203A15
:10062000C0F00B80B1E81850203AA0E81850B1E8AB
:100630001850A0E81850BFF4F5AF5FEA027C24BF61
:10064000B1E81850A0E8185044BF18C918C0BDE858
:1006500010405FEA827C24BF51F8043B40F8043B21
:1006600008BF7047D20728BF31F8023B48BF11F8D6
:10067000012B28BF20F8023B48BF00F8012B704730
:100680004FF000020429C0F0128010F0030C00F0BB
:100690001B80CCF1040CBCF1020F18BF00F8012B39
:1006A000A8BF20F8022BA1EB0C0100F00DB85FEA07
:1006B000C17C24BF00F8012B00F8012B48BF00F8D3
:1006C000012B70474FF0000200B513469446964642
:1006D000203922BFA0E80C50A0E80C50B1F1200155
:1006E000BFF4F7AF090728BFA0E80C5048BF0CC003
:1006F0005DF804EB890028BF40F8042B08BF704761
:1007000048BF20F8022B11F0804F18BF00F8012BD2
:10071000704710B5044610F0030F08BF11F0030F27
:1007200040F015804FF0013E121FC0F20E8051F8CC
:10073000043BA3EB0E0C2CEA030C1CEACE1C08BFF6
:1007400040F8043BF0D0A1F1040102F10402521E72
:1007500008DB11F8013B002B00F8013BF7D11146F3
:10076000FFF78EFF204610BD4FF0013C50F8042BE0
:1007700051F8043B9A4221D1A2EB0C03934313EAB4
:10078000CC1317D150F8042B51F8043B9A4215D1E1
:10079000A2EB0C03934313EACC130BD150F8042BB8
:1007A00051F8043B9A4209D1A2EB0C03934313EA9C
:1007B000CC13DBD04FF00000704700BFD01A01BA55
:1007C000B1FA81F101F0180122FA01F0CB40C1F138
:1007D0002001DBB2C0B2C01A2CFA01F3D11A914346
:1007E00011EAC311E6D170477047704770470000A7
:1007F00000487047B8050020004870479805002061
:1008000010B5FFF7F9FF006810BD10B50446FFF7FB
:10081000F3FF046010BD2DE9F0470D46994692465E
:10082000044600F124080168880604D5E06921F037
:100830001001216000E00120A84201DD471B00E01B
:100840000027A1697A1902EB0900081AA061207833
:10085000C00602D42046AFF30080002608E0D4E9A9
:1008600001211AF806009047206A401C761C20627D
:100870004E45F4DB2078C0060AD52046AFF3008051
:1008800006E0D4E9012130209047206A401C206214
:10089000381EA7F10107F4DC07E0D4E9012118F8BC
:1008A00005009047206A401C2062281EA5F1010522
:1008B000F3DC2046AFF300802078000602D502204A
:1008C000BDE8F0870120FBE770472DE9FF4F0C469C
:1008D0001E464FF0FF378BB0D2E90001DDF8608093
:1008E0000A908A46C1F30A5505B93D4600210846DB
:1008F0004FF00000BAF1000F00F4400005DA00EB01
:1009000080004FF4400101EA50004FEA9059B9F1DC
:10091000010F00DDB9460A9850EA4A000ED044F6AD
:100920001050A5F2FF3545432F14B8F1000F1ED02B
:100930007542291E1EDDC9F100021CE0B8F1010F4D
:100940004FF0000001D0302103E0F24305E02154D4
:10095000401CB042FBDB30460022002121540B99A1
:10096000C1F80880C1E900200FB0BDE8F08FBD1BC1
:100970006D1CDEE74A4600DA694206A800F07CFBFF
:1009800006AB93E8070003AB83E8070050460A99DB
:1009900001F0E2F88DE80700A0F500501F38009044
:1009A0000398002D0ADD42F21F014A460844002345
:1009B00003A90390684601F08DFB09E0A0F5005003
:1009C0004A461F38002303A90390684601F0ACFB98
:1009D0008DE807000004000C03D04FF0FF30410801
:1009E00000E01046B8F1000F03D000220092154637
:1009F0001EE0751E05D400F041FA303262556D1EBE
:100A0000F9D5B3460122084302D000227F1C04E03E
:100A10002078302801D100227F1E002A099784D037
:100A20001DE0112D07DA00F029FA303262556D1CF5
:100A300050EA0102F5D1084302D00098C8B10EE097
:100A40000021681E05E0235C625C63542254401E52
:100A5000491C8142F7DBAB46A81B401E09900020D1
:100A600004F80B000B98099AC0F80880C0E9002B25
:100A70007AE711264FF0000857E72DE9F04F884636
:100A80000446D21D22F0070191B0D1E90001CDE961
:100A90000A0102F082FE02460B98C00F01D02D2001
:100AA00007E02068810701D52B2002E0202101EA20
:100AB000C000032A099001D0072A05DB03464146FE
:100AC000204600F029FA0BE12078800601D5E06984
:100AD00000E00620B8F1650F814606D0B8F1660F38
:100AE00018D0B8F1670F70D131E00020B9F1110FC3
:100AF000009001DB112301E009F101030AAA01A919
:100B00000CA8FFF7E2FEDDE90C70002609F10105F3
:100B1000834647E001204B4600904FF000470AAA69
:100B200001A90CA8FFF7D1FEDDE90DB00C995D46D7
:100B3000002610B909F101000D18B9EB050003D426
:100B4000C0F1FF3609F10105A5EB09002BE0B9F171
:100B5000010F01DA4FF001090020B9F1110F0090E7
:100B6000484601DD112300E003460AAA01A90CA8AA
:100B7000FFF7ABFEDDE90C704D460026834620787A
:100B800000070AD4AB4500DA5D4601A8012D04DD5B
:100B9000411911F8011C302907D04F4502DA17F12D
:100BA000040F04DA012082460FE06D1EEEE7002FED
:100BB00002DCED1B3E4403E0781CA84200DD7D1CF6
:100BC000B81B00F1010A4FF000472078000703D45A
:100BD000AA4501DB4FF0FF3A0021B7F1004F0DF1BC
:100BE00043088DF8431024D002202B23002F01DA74
:100BF0007F422D230A21021EA0F1010000DC5FB11B
:100C000097FBF1FC97FBF1F201FB1C7C17460CF102
:100C1000300C08F801CDEEE7A8F10100037021883F
:100C2000090501D5452100E06521A0F1010800F882
:100C3000011C09980FA9A1EB0807FF1D00B10120B5
:100C4000411901EBEA70A1693844081A401EA061FD
:100C50002078C00602D42046AFF30080099828B15E
:100C6000D4E901219047206A401C20622078C00608
:100C700022D52046AFF300801EE0002E04DBB345F2
:100C800002DD01A8805D00E03020D4E90121904719
:100C9000206A401C2062761CAAF101005FEA000A6B
:100CA0000AD1FFF7A5FDC0680168405CD4E90121C5
:100CB0009047206A401C2062281EA5F10105DCDC5B
:100CC00007E0D4E9012118F8010B9047206A401C85
:100CD0002062381EA7F10107F3DC2046AFF3008045
:100CE000032011B041E6000001694A1C0261087846
:100CF000704700B58FB0CDE901310021059105495C
:100D00007944CDE9031011466846FFF7FFFA0FB0AA
:100D100000BD0000E5FFFFFF0A6802F8010B0A6052
:100D20007047D1E900239A4202D2531C0B60107025
:100D3000704710B5436913B1AFF3008001E0FFF7CE
:100D40007FFA012010BD127800F124010A70002200
:100D50004A700122EDE711684FF0FF32E9E7000029
:100D60000FB4002300B589B00CA900910B99CB609A
:100D7000214B7B440693214B7B44079304236FF064
:100D80000042CDE901321E4A7A446B46089202467F
:100D9000002005F0C8FA09B05DF814FB70B50646EE
:100DA0004FF0FF3015460C46324686B00091CDE933
:100DB000010169460020049004A8FFF7D1FF024614
:100DC0000498211825B108B1084600E020462860A3
:100DD000049800280DD0002A02DD0098884208D02F
:100DE0003246081B69460094CDE9010404A8FFF7C8
:100DF000B7FF06B070BD0000230200003B020000F8
:100E00007B0100002DE9F04791460F4680460446DD
:100E1000002614F8015B2DB1FFF7EEF90068405D84
:100E2000C007F6D12B2D02D02D2D18D0641E4A46B6
:100E30003946204600F0D0F827B13968A14201D1E7
:100E4000C7F800804FF0020471050BD5404200281E
:100E500003DDFFF7D1FC0460A007BDE8F08746F48E
:100E60008066E4E70028F8DAFFF7C6FC04606FF05C
:100E70000040F2E7004870479805002030B5B0F117
:100E80000A024FEA900E71F100034EEA817EB0EB48
:100E90000E0061EB91014FEA101E4EEA017E10EB4D
:100EA0000E0041EB11114FEA102E4EEA016E10EBCD
:100EB0000E0041EB11214FEA104E4EEA014E10EBAD
:100EC0000E0041EB1141401841F100014FEAD00002
:100ED00040EA41704FEAD10110EB80054FEA8104EE
:100EE00044EA907444EB01046D1944EB0404521B72
:100EF000A3414FF0000348BF0A3200D530BD401C6B
:100F000041F1000130BD10B50446FFF775F90068E6
:100F1000005D00F0010010BD2DE9F0411F460446C0
:100F200003260168072A01F4006004DB08B116A556
:100F300005E016A503E008B115A500E015A521F010
:100F400010002060A069C01EA0610FB1401EA0610A
:100F50002046AFF300804FB1D4E9012138469047D5
:100F6000206A401C2062C01C206206E0206AFAE76A
:100F7000D4E9012115F8010B9047761EF8D22046DE
:100F8000AFF30080BDE8F0814E414E006E616E000F
:100F9000494E4600696E6600426842B1016811F828
:100FA000013B23B1521EC0E90012184670470121CF
:100FB000C160881E704742685AB1C368016843B96E
:100FC00083688B4205D0491E521CC0E900120020E4
:100FD00070474FF0FF3070472DE9F05F82461546AD
:100FE0008B4600270AF10104B9460078302801D069
:100FF0009DB113E014F8010B0127782803D058287D
:1010000001D045B10AE00DB1102D07D1002714F829
:10101000010B102502E0082500E00A250026B04655
:101020000EE005FB080005FB06F101271FFA80F81A
:1010300001EB1046B6F5803F00D3B94614F8010B1A
:10104000294600F0B0F80028EBDABBF1000F05D01C
:101050000FB1641E00E05446CBF80040B9F1000F18
:1010600006D0FFF7C9FB02210160C81EBDE8F09F52
:1010700048EA0640FAE700002DE9F04781461646A7
:101080008AB0354878440DC88DE80D003248784460
:10109000801C03AC0DC884E80D0041F69B30084469
:1010A000372190FBF1F290FBF1F5A5F1800501FBF2
:1010B00012041B3C02D56442012000E00020DFF84E
:1010C00098A080460027FA44AAF1BE0A0EE0E00785
:1010D0000AD03246684607EB470101230AEB81013B
:1010E00001F022F88DE8070064107F1C002CEED17F
:1010F000194F7F44AE3F19E0E80715D007EB041005
:101100000DF1180A90E80E008AE80E00C068F0425F
:1011100001D1981908903246012306A903A801F0CD
:1011200003F803AB83E807006D10641C002DE3D1C6
:101130004FF0010332466946B8F1000F03A802D010
:1011400000F0C8FF01E000F0EFFFC9E90001C9F8B5
:1011500008200AB0BDE8F0877C5B00007546FFF709
:1011600089FEAE4605006946534620F007008546D5
:1011700018B020B5FFF72EF8BDE820404FF000066C
:101180004FF000074FF000084FF0000B21F007016F
:10119000AC46ACE8C009ACE8C009ACE8C009ACE8B2
:1011A000C0098D4670473A2800D2303820F020021E
:1011B000412A01D3A2F13700884201D34FF0FF301A
:1011C000704700002DE9FF4F06468BB00878FF28D6
:1011D00006D0491C2D2805D000244FF0000908E056
:1011E00000200CE00124F8E709EB8903491C00EB1F
:1011F00043090878FF28F7D114B1C9F100008146EE
:10120000107800252C46AA4629462D2801D02B28E7
:1012100004D1521C2D2813D0002082468B46107812
:10122000FF280FD04FF0000C0A21521CA5FB0178BB
:1012300004FB018105FB0C11C5194BEB0104EEE722
:101240000120EAE7002108464FF00000BAF1000F44
:1012500002D000EB80004008C0F38157012F01DD70
:101260004FF0FF370E9955EA040009EB01080BD047
:101270004FF0020918F5FA7F16DA4FEACA70002F0C
:10128000706008DD012007E04FEACA70C6E900B0CF
:101290000FB0BDE8F08F00203060FFF7ADFAC0F866
:1012A00000901821084616E0B8F5FA7F18DD002FE7
:1012B00002DAF748784401E0F6487844D0E90010B3
:1012C000C6E9001040EACA707060FFF795FAC0F8EE
:1012D0000090142108460FB0BDE8F04F04F0BEBFE7
:1012E000002108464FF00000B8F10001099002DA31
:1012F000C7F1000200E03A4601DAC8F1000106A891
:10130000FFF7BAFE06AB93E8070003AB83E80700DC
:1013100044F23E005BEA04010090584604D144F2D6
:101320001E012C465D460091210C0904014306D1A3
:101330000099240444EA15442D041039009104F066
:101340007F41014306D10099240244EA15642D022D
:101350000839009104F07041014306D1009924013D
:1013600044EA15742D01091F009104F04041014326
:1013700006D10099A40044EA9574AD00891E00913D
:1013800004F00041084304D100986D196441401EE7
:1013900000904FF001033A466846B8F1000FCDE9DE
:1013A000014503A902DD00F0D4FE01E000F0A7FE34
:1013B000BAF1000F04460D4601D084F0004400212C
:1013C00008464FF00000099940F2FF77484010F0BE
:1013D0000C0F07D124F00040284303D0C4F30A5077
:1013E000B84212D1FFF708FAC0F80090C4F30A50CF
:1013F000B8420AD1A8487844D0E90010C6E90010E4
:1014000004F000410843706042E7C6E900543FE73A
:101410002DE9FF4F1F464FF0000A4FF0FF384546B9
:1014200091B0D7E90146CDF83CA0FFF7E1F9C068DB
:101430000168405C1090B96912986D1C8847396A40
:10144000814688470028F6D1B9F1FF3F0AD0002E27
:1014500024F4D06411DDB9F12B0F08D0B9F12D0FB0
:101460000BD102E0404615B013E744F48064B9693B
:1014700012986D1C8847761E8146600504A901D527
:101480002D2000E02B20002E01F1010B0DF1300882
:101490008DF810003FDDB9F1690F08D0B9F1490F9F
:1014A00005D0B9F16E0F02D0B9F14E0F1CD13B46F9
:1014B00001A8009580E85002DDE912126FF00200E9
:1014C00004F035FFC11CCED10EE0B96912986D1C35
:1014D000884781461398761E44F4007405600F987F
:1014E000401C002E0F9016DDB9F1300FEDD0B9F190
:1014F000780F02D0B9F1580F0DD10F9801280AD1F9
:101500003B46CDE90054DDE91212001F029604F0BB
:101510000CFFC11CA7D1109989453ED144F080042D
:1015200006E01399681CAAF1010A44F400740860EB
:10153000B9696D1C1298761E884730288146F0D014
:101540002BE01099894505D1200603D4761E44F07E
:10155000800418E0484602F0DCFC08B3761E0DF16A
:1015600023018B4544F4007408D2A9F130000BF834
:10157000010B200607D5AAF1010003E0200602D4E2
:101580000AF101008246A00502D51399681C086083
:10159000B96912986D1C88478146002ED1DC53E052
:1015A000002E51DDB9F1650F02D0B9F1450F4BD1D5
:1015B000A00549D5B9696D1C1298761E24F44074B3
:1015C0008847002E81460CDD2B2804D0B9F12D0F61
:1015D00007D144F48074B96912986D1C8847761E4F
:1015E0008146E00501D52D2100E02B2108F8011BE3
:1015F000CDF8008021E0761E0DF13901884544F4D4
:1016000000740CD2A9F1300010F0FF0088F800003F
:1016100002D10099884509D908F1010806E0E005E2
:1016200001D51E4801E042F20F708246B969129856
:101630006D1C8847814613980560002E04DD4846DE
:1016400002F067FC0028D6D1F96912988847FF207C
:1016500053468BF8000088F8000000200A900B9099
:1016600004AA0CA90AA8FFF7ADFDA00502D46FF0EB
:101670000100F8E614F0240F12D0E0071CD13868FE
:10168000DDE90A12031D3B600068C0E9001213E0A7
:10169000B8590000AA5900006E580000F1D8FFFFA9
:1016A0000AA9684602F0C4FBE00705D13868009A31
:1016B000011D3960006802602846D4E610B5044672
:1016C000AFF300802046BDE81040FEF76FBD00007C
:1016D0002DE9FF4F1F464FF03C0987B04FF0004205
:1016E000DDE9141001F10108DDF858A002EA4050CC
:1016F0000390002005908346054604460490B9698E
:10170000461E08988847AAF1010A0290BAF1000F14
:101710003BDD02982E2815D01021FFF744FD00284C
:101720002EDB4FF0010B0599014317D0B9F1000FE3
:101730000BDB4A46C11700F0FCF905430C43A9F145
:10174000040905E0012004900BE008B145F0010513
:1017500001200590049820B9361D02E0049800B1DC
:10176000361FB969089808F101088847BBF1000FD6
:10177000AAF1010A0290C9D00999C1F80080C5E711
:101780000298702808D0502806D0F9690898884730
:10179000BBF1000F14D04FE0002002900120BBF1FC
:1017A000000F049009D0B969089808F1010888472A
:1017B000AAF10109B9F1000F07DCF9690898884717
:1017C0006FF001000BB0BDE8F08F2B2804D02D285E
:1017D0000CD14FF0FF300490B969089808F1010866
:1017E0008847A9F10109B9F1000FE6DD411CE4D0F9
:1017F0000A21FFF7D8FC0028DFDB029908F1010875
:1018000001EB810100EB41000290B969089888471B
:101810000A21FFF7C8FC099AA9F10109B9F1000FE3
:10182000C2F8008001DD0028E7DAF96908988847E6
:101830000499029800FB016655EA040004D004F004
:101840004041090002D006E0039898E0A40044EA71
:101850009574AD00B61E04F00041080002D16D1968
:101860006441761E159810F0240F03D04FF00B0939
:101870005C4803E04FF028096FF07D008246564532
:1018800007DAAAEB06018944B9F1410F01DD4FF0F7
:10189000410901200021A9F1010200F04AF90246A4
:1018A00028400B462140084301D0012100E00021DF
:1018B000501E029143F1FF3128402140084301D0DE
:1018C000012000E000200299834651EA0B014FD02D
:1018D000002108464FF00000039900F4400039B1A0
:1018E00000EB80004FF4400100EBD07001EA600093
:1018F0008015012802DD4FF0FF3000E013D0401CBE
:1019000036D0029860B3BBF1000F0CD14A460120DB
:10191000002100F00EF928402140084301D00120A9
:1019200000E00020E0B101204A46002100F001F96A
:10193000034640190A4661412D1A8C4111D3B9F171
:10194000400F09DD159810F0240F02D0AAF13406DB
:1019500003E0AAF1170600E0761C00254FF00044D2
:1019600006E05B1E42F1FF3220EA030521EA020491
:10197000CAF10100B04206DA1B49039808430190FE
:10198000002000900EE0039AC4F3D321E80A0A4332
:10199000164940EA44500A433146CDE90002684600
:1019A00002F0ACFA159810F0240F0BD01598C00770
:1019B00015D13868DDE90012031D3B600068C0E9FD
:1019C00000120CE002A8694602F032FA1598C0072E
:1019D00005D13868029A011D3960006802604046EE
:1019E000F0E6000002FCFFFF0000F07F0000F03F87
:1019F0002DE9FF4F92461D4685B04FF00041DDE9CD
:101A0000124BDDE914727F1E01EA4B50414940F050
:101A1000FF4940EA0108002122F0200049280491F2
:101A200002D04E2828D04CE03BA0012607C88DE804
:101A30000700A9690698641C88477F1E014606D4E2
:101A40001DF8060018B121F0200181420BD0E96990
:101A500006988847032E34D0082E32D06FF001004C
:101A600009B0BDE8F08F761C032E01D0082EE0D11E
:101A7000601CCAF80000DCE7A9690698641C884766
:101A80007F1E2AD420F02000412826D1A96906987B
:101A9000641C88477F1E20D420F020004E281CD1D3
:101AA000A9690698641C88477F1E48F4002849F4F9
:101AB0008009CAF8004001D4282806D0E9690698B0
:101AC00088475FEACB7012D022E0A9690698641CAF
:101AD00088477F1E01D4002803DAE9690698884701
:101AE000BCE72928F1D1641CCAF80040E9E71BF0E3
:101AF000240F07D028680499031D2B600068C0E9F3
:101B0000001805E02868021D2A600068C0F80090EF
:101B10002046A5E70000F07F494E46494E495459FA
:101B20000000000001491820ABBEFEE726000200BD
:101B30007047B2F120030AD5C2F1200301FA02F185
:101B400020FA03F300FA02F041EA0301704700FAB9
:101B500003F14FF0000070475FEA400C08BF91F0BE
:101B6000000F4FEA8C234FEAC12243EA51514FEA5A
:101B70001C5018BF00F5F0404FEA300018BF41F08C
:101B800000415FEA6C5C00F02980BCF1FF3F08BFB8
:101B900040F080407047130C06BF12044FF0100C49
:101BA0004FF0000C130E04BF12020CF1080C130FBF
:101BB00004BF12010CF1040C930F04BF92000CF14E
:101BC000020CD30F04BF52000CF1010C11464FF070
:101BD0000002A0F11F00A0EB0C00704711F0004FB5
:101BE00008BF704731F000413FF4D5AF0B0C06BF82
:101BF00009044FF0100C4FF0000C0B0E04BF09024B
:101C00000CF1080C0B0F04BF09010CF1040C8B0F35
:101C100004BF89000CF1020CCB0F04BF49000CF18A
:101C2000010CCCF12003A0EB0C0022FA03F302FA22
:101C30000CF241EA030100F10100704720F07F4CF3
:101C400080EA030023F07F47ACEB070303F57C53E6
:101C500000F0004003F1FF032DE980494FEA154BE6
:101C600009B44FEA144325EA0B4E24EA03480FF265
:101C7000042606EB132749083E785FEA320203FB8D
:101C80000667C7F5000707FB06F64FEA54374FEA29
:101C9000D64606F1020607FB066CCCF1005C4FEA63
:101CA0001C472CEA074C07FB06F40CFB06F504EB7B
:101CB00015464FEA961634BF00204FF000404FEA19
:101CC000D13706FB07FC4FEA1C4C0CFB0BF7D21B71
:101CD00003FB0CF761EB07010CFB0EF7B0EB0740C1
:101CE00072EB17420CFB08F734BFA2EB0742B2EBD2
:101CF000074261EB17414FEA0C444FEA910706FB9C
:101D000007FC4FEA1C4C0CFB0BF7B0EBC74072EB27
:101D1000573203FB0CF734BFA2EBC742B2EBC7420A
:101D200061EB57310CFB0EF7B0EBC70072EB57724B
:101D30000CFB08F734BFA2EBC702B2EBC70261EBA2
:101D40005771039F4FEA816141EA921104EBCC0481
:101D50004FEAD1374FEA826206FB07FC42EA901253
:101D60004FEA80604FEA1C4C0CFB0BF7D21B03FBC5
:101D70000CF761EB07010CFB0EF7B0EB074072EBC1
:101D800017420CFB08F734BFA2EB0742B2EB074245
:101D900061EB17414FEA8C554FEA910704EB9C2405
:101DA00006FB07FC4FEA1C4C0CFB0BF7B0EBC740E3
:101DB00072EB573203FB0CF734BFA2EBC742B2EB16
:101DC000C74261EB57310CFB0EF7B0EBC70072EB6B
:101DD00057720CFB08F734BFA2EBC702B2EBC70285
:101DE00061EB577115EB4C254FEA816141EA921185
:101DF0004FEA82624FEAD13742EA901206FB07FCB3
:101E000044F100044FEA80604FEA1C4C0CFB0BF7D6
:101E1000D21B03FB0CF761EB07010CFB0EF7B0EBD9
:101E2000074072EB17420CFB08F734BFA2EB0742E6
:101E3000B2EB074261EB174115EB1C154FEA8131FC
:101E400041EA92414FEA823242EA90424FEA8030C0
:101E50004FEA0C7644F1000448EA03434EEA0B488B
:101E60004FF0000EB2EB080C71EB030724BF624683
:101E700039464EEB0E0E4FF0000B0018524149410F
:101E80004BEB0B0BB2EB080C71EB03077BF1000B78
:101E900024BF624639464EEB0E0E4FF0000B001881
:101EA000524149414BEB0B0BB2EB080C71EB0307B2
:101EB0007BF1000B24BF624639464EEB0E0E51EA11
:101EC000020718BF46F0010616EB0E7655F1000228
:101ED00054F1000103D5BDE88901BDE80088BDE8E3
:101EE0008901BDE80048B619524141EB0101A3F157
:101EF0000103704780807F7E7D7C7B7A797877765E
:101F000076757473727171706F6E6E6D6C6C6B6AD6
:101F10006A69686867666665646463636261616074
:101F2000605F5F5E5E5D5D5C5C5B5B5A5A595958F1
:101F3000585757565655555554545353525252515B
:101F4000515050504F4F4F4E4E4D4D4D4C4C4C4BB1
:101F50004B4B4A4A4A4949494848484747474746F8
:101F60004646454545444444444343434342424234
:101F70004241414146EA0646A3F570534FEA1646F0
:101F800046EA42564FEAD22242EA415210B54FEA9F
:101F9000D121A3F1010300F02FF820F0004000F15F
:101FA000020C00F0004701EB00501146BCF5006F39
:101FB00040EA070000D210BDBAF1000F0AD01CB5EC
:101FC00003B44FF004004FF004014FF000000FBCC9
:101FD000BDE810404FF00001BBF1010FB9BF04484C
:101FE0004FF0FF310348002140EA070010BD00BF59
:101FF000FFFFEF7F0000F07F002B9C4630D477007E
:102000002BD01CB54FEA370703B44FF010004FF048
:102010001001BAF1000F06D0BCF1000FDCBF40F098
:10202000080040F008014FF000000FBCBDE8104070
:102030000BF1010BBBF1010F08BF5FEA170722BFCD
:1020400012F1010211F101014FF0004143F10003CF
:1020500000F0004043EA00007047F9D35708D0E78A
:1020600046EA064613F1400F4FEA16461FDD13F10C
:10207000200FDFBF16430A46002120335B42BED04B
:10208000C3F1200746EA064602FA07F74FEA16466A
:1020900046EA0706C3F1200722FA03F201FA07F71E
:1020A00021FA03F14FF0000342EA0702A7E746EAEC
:1020B000020646EA06464FEA164646EA0106BCBF55
:1020C00046EA0646360C4FF000034FF000024FF090
:1020D000000194E72DE9804C9A46934670B491E84C
:1020E000380007C831EA400C48BF34EA430C03D536
:1020F000FFF7A4FDFFF780FFF0BCBDE8008C2DE9E1
:10210000804C9A46934670B491E8380007C831EA8B
:10211000400C48BF34EA430C03D5FFF78FFDFFF7AF
:1021200029FFF0BCBDE8008C2DE9804C9A4693460F
:1021300070B491E8380007C810F0804F08BF13F062
:10214000804F03D100F01AF8FFF756FFF0BCBDE84E
:10215000008C2DE9804C9A46934670B491E8380083
:1021600007C810F0804F08BF13F0804F03D100F074
:1021700005F8FFF7FFFEF0BCBDE8008C20F07F47BC
:1021800080EA030023F07F4C07EB0C03A3F57C539C
:1021900000F00040A3F1FE0392F0000F00F0B380C6
:1021A00095F0000F00F077802DE901494FEA1140CA
:1021B0004FEA144621EA004800FB06FC24EA0647E1
:1021C00008FB06F607FB08F800FB07F718EB0648C4
:1021D0004CEB164C4FEA124B18EB07484FEA1546EA
:1021E0004CEB174022EA0B4E0BFB06FC25EA064798
:1021F0000EFB06F607FB0EFE0BFB07F71EEB064E6B
:102200004CEB164C4FF000061EEB074E4CEB174BF9
:1022100018EB0B0840F1000018EB0E0B58EB000810
:1022200040F100008F1A4FF000013CBFC943661B0C
:1022300014BFB5EB040C00213CBFC943F61B4FEAA9
:1022400017444EEA8E0E27EA04454FEA1C4704FB6A
:1022500007622CEA074C05FB07F70CFB05F604FBAD
:102260000CFC16EB074642EB174216EB0C4642EB12
:102270001C421BEB060658EB0202414146EA9E0651
:1022800001D5BDE80189B619524141EB0101A3F125
:102290000103BDE801894FEA14454FEA114724EADA
:1022A000054621EA074C05FB07F406FB07F70CFB84
:1022B00006F105FB0CFC11EB074144EB17444FEA18
:1022C000124711EB0C4144EB1C4422EA074C05FB7E
:1022D00007F206FB07F70CFB06F605FB0CFC16EBFA
:1022E000074642EB174216EB0C4642EB1C456A18B8
:1022F00054F1000148BF7047B619524141EB01014A
:10230000A3F10103704795F0000F37D04FEA114257
:102310004FEA144721EA024624EA074C02FB07F180
:1023200006FB07F70CFB06F402FB0CFC14EB07445E
:1023300041EB17414FEA154714EB0C4441EB1C41AC
:1023400025EA074C02FB07F506FB07F70CFB06F630
:1023500002FB0CFC16EB074645EB174516EB0C464B
:1023600045EB1C42121951F1000148BF7047B619E4
:10237000524141EB0101A3F1010370474FEA1445BB
:102380004FEA114724EA054621EA074C05FB07F10D
:1023900006FB07F70CFB06F24FF0000605FB0CFCF2
:1023A00012EB074241EB174112EB0C4251EB1C417F
:1023B00048BF7047921841EB0101A3F10103704738
:1023C000FEE7704772B6FEE770B5044600F008F904
:1023D0000546601C02D004480078044400F000F96F
:1023E000401BA042FAD370BD3C0000202DE9F84FFD
:1023F000DFF8B8910024A9F1040B23460F2709F157
:10240000040AABF1040EC9E00125A5402A40AA4206
:102410007DD1674ED1F804C0ACEB0608B44532D08C
:1024200014DCBCF1030F3AD009DCBCF1000F2AD058
:10243000BCF1010F1CD0BCF1020F31D11DE0BCF189
:10244000110F17D0BCF1120F2AD119E0B8F5881F6F
:1024500019D006DCB8F5803F15D0B8F5801F1FD124
:1024600011E0B8F5001F0ED0B8F5041F18D10AE02E
:10247000CB6815E0CB681B1D12E0CB6808330FE07A
:10248000CB680C330CE08B682BB1012B4FF00803A9
:1024900003D0456104E0042302E0056100E000236D
:1024A000FF2A01D8064601E000F104064FEA840540
:1024B00001D9A5F12005D6F8008007FA05FC28EA25
:1024C0000C0803FA05F548EA0508C6F800804D68CF
:1024D000ED0062D5374DAE6946F00106AE61AD69DB
:1024E00024F0030605F001050095334D06EB050CBD
:1024F000DCF80850A607360F07FA06F825EA0805A3
:10250000DFF8B880404503D14FF0000817E044E001
:10251000DFF8AC80404502D14FF001080FE0DFF852
:10252000A480404502D14FF0020808E0DFF898800F
:10253000404502D14FF0030801E04FF0040808FACB
:1025400006F848EA0508CCF808804D68D9F800601C
:10255000ED024D4601D5164300E096432E604D68CE
:10256000DAF80060AD02554601D5164300E0964307
:102570002E604D68DBF80060AD035D4601D5164363
:1025800000E096432E604D68DEF80060ED0375466E
:1025900001D5164300E096432E60641C0D682A4660
:1025A000E5407FF431AFBDE8F88F0000080401403A
:1025B000000011100010024000000140000801401E
:1025C000000C0140001001400014014080680840E8
:1025D00000D0012070470AB1016170470904FBE790
:1025E00001488068704700003C0000200248816874
:1025F00002781144816070473C000020074810B504
:10260000016841F010010160032000F075F80F200F
:1026100000F006F800F024F8002010BD0020024071
:1026200070B50D4D04464FF47A712878B1FBF0F087
:102630000A490968B1FBF0F000F070FB48B9102CB2
:1026400007D200222146501E00F036F800206C60B0
:1026500070BD012070BD00003C000020480000203B
:102660000C4808B5816941F001018161816901F07F
:1026700001010091C16941F08051C161C06900F060
:10268000805000900448416821F0E06141F0007101
:10269000416008BD0010024000000140002809DB35
:1026A00000F01F02012191404009800000F1E0206C
:1026B000C0F8001170470000F0B40E4B1B680C46C8
:1026C000C3F30223C3F10705042D00D90425191D06
:1026D000072901D2002300E0DB1E012606FA05F1DE
:1026E000491E214099409E40761E16403143F0BC61
:1026F00001F067B80CED00E0064900F00702086839
:102700004FF6FF03184040EA0220034A10430860D6
:10271000704700000CED00E00000FA052DE9F047DD
:102720000F46050061D0434E306800F00700B84204
:1027300009D2306820F0070038433060306800F07C
:102740000700B84251D128683B4C810712D5400799
:1027500003D5606840F4E06060602878000703D526
:10276000606840F4605060606068A96820F0F00024
:10277000084360602878C00728D06868012810D016
:102780002168022810D0890700292EDA616821F01B
:10279000030101436160FFF723FF804641F288395E
:1027A0000DE021688903EFE78901EDE7FFF718FFE6
:1027B000A0EB0801494502D90320BDE8F087606815
:1027C000696800F00C00B0EB810FEFD1306800F0C9
:1027D0000700B8420BD9306820F00700384330605A
:1027E000306800F00700B84201D00120E5E7287802
:1027F000400705D56068E96820F4E0600843606040
:102800002878000706D56068296920F4605040EAFE
:10281000C100606000F038F86168084AC1F3031134
:10282000515CC8400649086006480068FFF7F8FE9A
:102830000020C2E700200240001002400A640008A5
:10284000480000204000002004480549006849680D
:10285000044AC1F30221515CC8407047480000207F
:10286000001002401A6400080448054900684968DD
:10287000044AC1F3C221515CC8407047480000209F
:10288000001002401A6400080E4A51680E4801F018
:102890000C03042B11D0082B0FD10C48C1F3834338
:1028A000C903C05C0AD55168084AC1F34041921E71
:1028B000515C054A5043B0FBF1F07047044948436E
:1028C000704700000010024000127A00FA6300080E
:1028D00000093D002DE9F84F040070D02078C04D6C
:1028E000C00749D06868C0F38100012807D0686834
:1028F000C0F38100022809D16868C00306D52868A2
:10290000800339D560680028E7D035E06068B0F50D
:10291000803F0BD010B1B0F5A02F11D0286820F463
:1029200080302860286820F4802002E0286840F485
:1029300080302860606890B1FFF752FE06460AE0DA
:10294000286840F480202860F0E700BFFFF748FEC9
:10295000801B642873D828688003F7D50CE0FFF744
:102960003FFE064605E000BFFFF73AFE801B6428E5
:10297000F0D828688003F7D420789A4E80074FF06B
:1029800001094FF0000839D5686810F00C0F07D026
:102990006868C0F38100022809D16868C00306D4C2
:1029A0002868800714D52069012808D110E0206923
:1029B000B0B1C6F80090FFF713FE074605E00AE144
:1029C000FFF70EFEC01B0228C4D828688007F7D581
:1029D0002868616920F0F80040EAC10028600DE035
:1029E000C6F80080FFF7FCFD074604E0FFF7F8FD9E
:1029F000C01B022823D828688007F7D42078000756
:102A00002CD57948A169D9B1C0F80090FFF7E8FD4D
:102A1000074604E0FFF7E4FDC01B02280FD8686AF0
:102A20008007F7D571484FF4FA510068B0FBF1F018
:102A3000009000BF0098411E0091FAD20EE080E0A5
:102A4000C0F80080FFF7CCFD074604E0FFF7C8FDA3
:102A5000C01B022875D8686A8007F7D42078400721
:102A600060D5E8690027C00008D4E86940F08050CC
:102A7000E861E869012700F0805000905C48016837
:102A8000C90513D40168834641F480710160FFF7E2
:102A9000A7FD824606E000BFFFF7A2FDA0EB0A00FB
:102AA00064284ED8DBF80000C005F5D5E0680128A1
:102AB0000AD008B1052813D0286A20F00100286246
:102AC000286A20F0040002E0286A40F00100286231
:102AD000E06841F2883B98B1FFF782FD82460BE047
:102AE000286A40F004002862EEE700BFFFF778FD97
:102AF000A0EB0A0159455AD8286A8007F6D50CE0A0
:102B0000FFF76EFD824605E0FFF76AFDA0EB0A01C4
:102B100059454CD8286A8007F6D41FB1E86920F0DF
:102B20008050E861E06988B36968C1F381010229D6
:102B300044D00228C6F8608004D0FFF751FD044657
:102B400038E034E0FFF74CFD074604E0FFF748FDAE
:102B5000C01B02282BD828688001F7D4206AB0F562
:102B6000803F05D16868A16820F4003008436860A0
:102B7000D4E908010843696821F4741108436860C6
:102B8000C6F86090FFF72CFD044606E025E000BF84
:102B9000FFF726FD001B022809D828688001F7D519
:102BA0001BE000BFFFF71CFD001B022802D9032019
:102BB000BDE8F88F28688001F4D40EE00128F7D032
:102BC0006868226A00F48031914204D1616A00F49D
:102BD0007010884201D00120EAE70020E8E70000F9
:102BE000001002400000424280044242480000209F
:102BF0000070004070B5040009D0606A002540B143
:102C000025616561A56294F8510040B10CE0012096
:102C100070BD6068B0F5827FF4D0E561F2E784F8BA
:102C20005050204600F040F8022084F851002068FF
:102C3000016821F040010160A088218900F48270C0
:102C400001F404410843A18901F400610843217C97
:102C500001F002010843217D01F001010843218BAD
:102C600001F400710843217F01F03801084394F812
:102C7000201001F080010843218D01F40051084328
:102C800021680860A069042101EA104021684860B9
:102C90002068C16921F40061C1616565012084F883
:102CA0005100002070BD000030B585B000240094B4
:102CB00001940294039400681549884225D115486F
:102CC000C16941F48041C161C16901F4804104914D
:102CD000816941F00801816180690F4D00F00800B1
:102CE00004904FF4204000900220019003200390B4
:102CF00069462846FFF77AFB4FF48040CDE900048F
:102D0000694628460294FFF771FB05B030BD00000C
:102D10000038004000100240000C014010B5401E79
:102D2000B0F1807F01D3012010BD4FF0E02460613D
:102D30000F21601700F045FD0020A06107202061F1
:102D4000002010BD70B5040004D094F841000025A7
:102D500010B106E0012070BD84F84050204600F01C
:102D600023F8242084F841002068C16821F4005130
:102D7000C160204600F072FC2068016921F4904196
:102D800001612068416921F02A0141612068C16820
:102D900041F40051C1606564202084F8410084F84A
:102DA00042006563002070BDF0B585B0002400943A
:102DB00001940294039403683F4F02203F49032289
:102DC0003F4D4602BB4225D18B6943F480438B6162
:102DD0008B6903F4804304938B6943F004038B6194
:102DE0008969039201F0040104910102CDE9001008
:102DF00069462846FFF7FAFACDE900646946284695
:102E00000294FFF7F3FA002211462520FFF754FC45
:102E1000252028E02B4FBB4229D1CB6943F4003356
:102E2000CB61CB6903F4003304938B6943F0040353
:102E30008B618969039201F0040104910421CDE9B9
:102E4000001069462846FFF7D1FA0820CDE90004B2
:102E5000694628460294FFF7C9FA00221146262047
:102E6000FFF72AFC2620FFF719FC05B0F0BD164D30
:102E7000AB42FAD1CB6943F48023CB61CB6903F435
:102E8000802304938B6943F008038B6189690F4D9C
:102E900001F00801CDE90321CDE90060694628462B
:102EA000FFF7A4FAE814CDE9000469462846029425
:102EB000FFF79CFAD9E700000038014000100240FB
:102EC000000801400044004000480040000C014060
:102ED0002DE9F843044690F84100984616460D4601
:102EE000202802D00220BDE8F88385B17EB1002001
:102EF0006064212084F84100FFF772FBA6848146BC
:102F0000E684A0682027B0F5805F02D003E00120AE
:102F1000E9E7206910B12E4600250EE000260CE0FE
:102F20008021204600F0F6FBA8B9C6B116F8010BC7
:102F300021684860E08C401EE084E08C4B464FF0F6
:102F40000002CDF800800028EAD14FF04001204671
:102F500000F0E0FB40B184F841700320C3E735F88E
:102F6000020BC0F30800E3E784F841700020BAE7E1
:102F7000FEE72DE9F04107461831183316468DB2A9
:102F80009CB22A2000F020FA380A00F0F3F9F8B2D7
:102F900000F0F0F9300A00F0EDF9F0B200F0EAF9D3
:102FA0002B2000F011FA280A00F0E4F9E8B200F052
:102FB000E1F9200A00F0DEF9E0B200F0DBF9BDE84B
:102FC000F0412C2000F000BA2DE9F0478146DDF8F1
:102FD00020801F4616460C464A451CD9A7421AD9DE
:102FE000781E83B2701E82B24846FFF7C2FF4FEAD6
:102FF000182A0EE04D4608E0504600F0BBF908F0F4
:10300000FF0000F0B7F96D1CADB2B542F4D3641CFB
:10301000A4B2BC42EED3BDE8F087000030B585B065
:10302000002002908B48816941F00801816180692C
:103030004FF4FC7400F0080004900120CDE900403A
:103040000320854D039069462846FFF7CFF90122FA
:1030500021462846FFF7BFFA002240212846FFF705
:10306000BAFA6420FFF7B0F9012240212846FFF7A1
:10307000B2FA6420FFF7A8F90022A9152846FFF745
:10308000AAFA6420FFF7A0F9112000F09DF978203A
:10309000FFF79AF9B12000F097F9052000F06AF9DE
:1030A0003C2000F067F93C2000F064F9B22000F009
:1030B0008BF9052000F05EF93C2000F05BF93C2024
:1030C00000F058F9B32000F07FF9052000F052F924
:1030D0003C2000F04FF93C2000F04CF9052000F0B6
:1030E00049F93C2000F046F93C2000F043F9B420B7
:1030F00000F06AF9032000F03DF9C02000F064F907
:103100000E2000F037F90E2000F034F9042000F012
:1031100031F9C12000F058F9C52000F02BF9C22088
:1031200000F052F90D2000F025F9002000F022F9FE
:10313000C32000F049F98D2000F01CF92A2000F08E
:1031400019F9C42000F040F98D2000F013F9EE20A9
:1031500000F010F9C52000F037F9062000F00AF958
:10316000362000F031F9782000F004F93A2000F020
:103170002BF9552000F0FEF8E02000F025F90B2097
:1031800000F0F8F8172000F0F5F80A2000F0F2F847
:103190000D2000F0EFF81A2000F0ECF8192000F0F4
:1031A000E9F8162000F0E6F81D2000F0E3F82120F1
:1031B00000F0E0F8262000F0DDF8372000F0DAF823
:1031C0003C2000F0D7F8002000F0D4F8092000F0EF
:1031D000D1F8052000F0CEF8102000F0CBF8E12067
:1031E00000F0F2F80C2000F0C5F8192000F0C2F849
:1031F000092000F0BFF80D2000F0BCF81B2000F003
:10320000B9F8192000F0B6F8152000F0B3F81D2029
:1032100000F0B0F8212000F0ADF8262000F0AAF868
:10322000392000F0A7F83E2000F0A4F8002000F0BC
:10323000A1F8092000F09EF8052000F09BF810206E
:1032400000F098F87820FFF7BFF8292000F0BCF8CC
:1032500005B030BD00100240000C01402DE9FF4FC9
:1032600085B0044613980027A34610285FD1203A62
:103270004FF008094FF0010A03905F2A57D20698D1
:10328000D5B20F3083B2E01D82B258460699FFF7DF
:1032900070FE2948002600EB051002900898000AED
:1032A00000900298002510F80680149800280AFA69
:1032B00005F000EA08001CD070B10699089A019246
:1032C00020460B462246FFF754FE009800F052F8C5
:1032D000019AD0B200F04EF8641CA4B2A4EB0B002B
:1032E00081B249451AD106985C46401C80B20690CE
:1032F00018E020B1009800F03DF8089804E012981A
:10330000000A00F037F81298C0B200F033F87F1CC2
:10331000FFB2B7FBF9F109FB117058B16D1CEDB2AA
:10332000082DC2D3761C0398B6B28642B9D309B031
:10333000BDE8F08F0027F5E7226400082DE9FE4F75
:103340009946DDE90C8614468A46054600270CE0BE
:10335000CDF800804B4651462846CDE90167FFF77E
:103360007DFF05EB560085B2641C2278002AEFD160
:10337000BDE8FE8F70B5134E054600228021304611
:10338000FFF729F90024002208213046FFF723F92E
:10339000280601D5012200E0002220213046FFF757
:1033A0001AF9012208213046FFF715F96806050EC3
:1033B000641C082CE7DB3046BDE870400122802108
:1033C000FFF709B9000C014070B5184C0646002201
:1033D00010212046FFF7FFF8002280212046FFF74A
:1033E000FAF80025002208212046FFF7F4F83006FD
:1033F00001D5012200E0002220212046FFF7EBF852
:10340000012208212046FFF7E6F87006060E6D1C23
:10341000082DE7DB012280212046FFF7DCF820465B
:10342000BDE8704001221021FFF7D5B8000C014023
:1034300070B586B000241C48009401940294039453
:10344000816941F020018161816901F020010491CD
:10345000816941F004018161816901F004010491F5
:10346000816941F0080181618069104E00F0080017
:1034700041F2F8050490002229463046FFF7ABF8E8
:103480000220CDE9024000950125694601953046AC
:10349000FEF7ACFFCDE90054694605480295FEF7FA
:1034A000A5FF06B070BD000000100240000C0140F6
:1034B000000801400F4810B50D4901604FF48271BA
:1034C000416000218160C1604FF400720161C0E978
:1034D0000512C1610162416281620A21C162FFF786
:1034E00089FB002803D0BDE81040FEF76BBF10BD7C
:1034F00000380040680400200C4810B50A490160FB
:103500004FF4E1314160002181600C22C160C0E9CB
:1035100004128161C161FFF715FC002803D0BDE8EA
:103520001040FEF74FBF10BD00380140C00400201E
:103530000C4810B50A4901604FF4E13141600021A7
:1035400081600C22C160C0E904128161C161FFF792
:10355000F9FB002803D0BDE81040FEF733BF10BDD3
:1035600000440040080500200C4810B50A490160DD
:103570004FF416514160002181600C22C160C0E906
:1035800004128161C161FFF7DDFB002803D0BDE8B3
:103590001040FEF717BF10BD004800405005002046
:1035A000FEE7FEE770477047FFF720B830B58FB0F1
:1035B00028216846FDF786F814210AA8FDF782F84D
:1035C00001210804CDE90010002402940225049191
:1035D000CDE907504FF4E01009906846FFF77AF9FB
:1035E00008B172B6FEE70F20CDE90A054FF48060FE
:1035F000CDE90C4002210AA80E94FFF78FF80028AD
:1036000001D072B6FEE70FB030BD704701680C31D3
:1036100051E8002F22F4907241E80023002BF5D1ED
:103620000168143151E8002F22F0010241E8002323
:10363000002BF5D1016B012909D101680C3151E84A
:10364000002F22F0100241E80023002BF5D12021A9
:1036500080F84210002101637047000070B50446F5
:1036600000680169E26821F4405111430161216958
:10367000A0680843616908432168CA6841F20C6385
:103680009A430243CA6020684169A26921F44071EB
:10369000114341611E492068884202D1FFF7E4F8D6
:1036A00001E0FFF7D1F800EBC00101EB0012606808
:1036B00064218000B2FBF0F3B3FBF1F36FF0180666
:1036C0007343B2FBF0F5B2FBF0F605EB8305322352
:1036D00003EB0515B5FBF1F5B6FBF1F605F0F005CA
:1036E00005EB0615B2FBF0F6B2FBF0F0B0FBF1F023
:1036F0006FF01802504306EB800003EB0010B0FBA4
:10370000F1F0216800F00F002844886070BD0000CF
:10371000003801402DE9F843984617460D46044607
:10372000089E24E0701C22D0FEF75AFFA0EB080090
:10373000B0421AD8CEB12068C168490717D5802D8C
:1037400015D0402D13D00168C94309070FD4016873
:103750000025406800902046FFF758FF082060646D
:1037600084F840500120BDE8F8830320FBE720687F
:10377000006835EA000004D00020B842D2D0002012
:10378000F1E70120F9E770470149024800F0C6BEA1
:103790000805002000440040FEE7490050EAC1202F
:1037A00018BF04204A0D18BF40F0010040F2FF721C
:1037B000B2EB515F08BF40F00200012808BF0520AE
:1037C00070470907090E002804DB00F1E02080F8AB
:1037D0000014704700F00F0000F1E02080F8141D85
:1037E000704700002DE9F74F144694B00021C4E95A
:1037F00002111599079121F00045C9498D4206DC57
:103800001599C4E9000117B00020BDE8F08FC54943
:10381000DFF814A3A9423CDD0799C44E0029C44F28
:10382000C44A1599534619DD02F022FB554506D0CE
:10383000C14AC24B02F01CFBC4E900010AE04FF090
:10384000D352BE4B02F014FB32463B4602F010FB53
:10385000C4E9000117B00120BDE8F08F01F0FCFDC4
:10386000554506D0B44AB54B01F0F6FDC4E9000158
:103870000AE04FF0D352B14B01F0EEFD32463B4629
:1038800001F0EAFDC4E9000117B04FF0FF30BDE8D8
:10389000F08FAB49A942159978DB21F000418346AE
:1038A0008846A84AA84B02F0BDF80022A74B01F0B9
:1038B000D3FD02F021F8099002F04DF806460F46BC
:1038C0009C4A534602F0AEF843465A4602F0DEF9EF
:1038D00080468A46984A994B3046394602F0A2F80B
:1038E0002A0D01250B924246534602F0CFF9032DD3
:1038F000C4E9000139D00B98C1F30A51401A05EB15
:1039000045111139814230DA9148C346784400EBC1
:103910000510CDF80CA00C90D0E9002330463946B4
:1039200002F080F802460B4604910690584603992F
:1039300002F09EFA80468A4602460B465846039994
:1039400002F096FA049B069A02F092FA83460C98CB
:1039500003913946D0E90223304602F063F85A4613
:10396000039B02F085FA6D1CBDE707980028A2BFF3
:10397000099817B0BDE8F08F616881F0004161607F
:10398000099817B04042BDE8F08FFFE784461598CC
:10399000C1F31301C0F30A50A0F2F5304FEA6018EA
:1039A00000F01F06C6F1200013900020069007903B
:1039B00041F4801E05206D4676B1664A08EB000191
:1039C0007A4452F8213002EB8101B3404A681399DE
:1039D00022FA01F1194305E05F4908EB000279443E
:1039E00051F82210A1FB0E27A1FB0C131A449A4296
:1039F00034BF0123002303EB070A05EB8003D3E95F
:103A000001B70F448F4234BF0121002193448B44FE
:103A100011B1934502D903E0934501D2012100E0A1
:103A20000021C3E901B7514445F82010011EA0F15F
:103A30000100C1DC0298059F00F10050800F129038
:103A40000298DDE90356800001F085FF8346284691
:103A50000D9101F097FF6FF01D0202F036FCCDE9E9
:103A60000E01304601F08EFF6FF03D0202F02DFC9A
:103A700080468A46384601F085FF6FF05D0202F00D
:103A800024FC074642465346119101F0E5FCDDE96E
:103A90000E2301F0E1FC5A460D9B01F0DDFC0025F0
:103AA0000E465A4628460D9B02F0E2F9DDE90E2348
:103AB00002F0DEF94246534602F0DAF93A46119B2B
:103AC00002F0E4F8DFF898A0244A534601F0AAFF78
:103AD00007468846234A244B3146284601F0A2FF78
:103AE0003A46434601F0B8FC074688464FF0A842E4
:103AF00053463146284601F095FF3A46434601F0C9
:103B0000ABFC159A12F0004F04D0129A81F00041DC
:103B100052421292C4E90001129817B0BDE8F08F2A
:103B2000FB21E93F7CD90240FB21F93F7370032E52
:103B30008A19A33B000040543163621A61B4D03D3E
:103B4000FB21394183C8C96D305FE43F0000E03F8D
:103B50008831000004310000E6300000182D445484
:103B6000FB21F93D3326A611460B113C2DE9FF4DF3
:103B700021F0004807460C46B8F1795F08DA01F0F9
:103B8000BBFE002801BF0020324904B0BDE8F08D23
:103B90003A4623461046194601F044FF05460246C0
:103BA0002D480E460B460621784400F05DF82A4663
:103BB000334601F037FFDDE9022382468B46384663
:103BC000214601F02FFF04460F4652465B46284629
:103BD000314601F027FF22463B4602F049F90746ED
:103BE0008A464FF0FF322846314602F06EFB1B4AF0
:103BF00090450ADA3A46534602F03AF904B00022F8
:103C0000BDE8F04D134B02F041B8154A4245A8BF3C
:103C1000A8F500154FF00004B8BF124D22462B4600
:103C200002F026F90646884622462B46002009491E
:103C300002F01EF904460D463A46534630464146C8
:103C400002F016F904B022462B46BDE8F04D02F012
:103C50001DB800000000F03FBC2E00003333D33FFE
:103C60000000E93F0000D23F2DE9F0414F1E00EB7C
:103C7000C7010446D1E9000115461E4637F0060289
:103C80000DD02A46334601F0CDFE7F1E04EBC7035C
:103C9000D3E9002301F0E0FB37F00602F1D1022F57
:103CA00025D0042F13D0062F18BFBDE8F0812A4677
:103CB000334601F0B7FED4E90A2301F0CDFB2A46D2
:103CC000334601F0AFFED4E9082301F0C5FB2A46D4
:103CD000334601F0A7FED4E9062301F0BDFB2A46D6
:103CE000334601F09FFED4E9042301F0B5FB2A46D8
:103CF000334601F097FED4E9022301F0ADFB2A46DA
:103D0000334601F08FFED4E90023BDE8F04101F015
:103D1000A3BB00002DE9FF4D054621F0004084B013
:103D20000C46B0F1795F0BDA2846FFF736FD042820
:103D300008BF00F075F8284608B02146BDE8F08DB0
:103D40002A460B46104601F06DFE06460F462A46EF
:103D5000234601F067FE804626488A4632463B46A7
:103D600005217844FFF780FF83461098029160B3E5
:103D7000214A224B4046514601F054FECDE9000154
:103D80005A4640465146029B01F04CFE8246884608
:103D9000DDE906014FF0FF3202F097FA5246434642
:103DA00002F066F832463B4601F03CFEDDE90623B0
:103DB00002F05EF8DDE9002302F05AF808B02A4666
:103DC0002346BDE8F04D01F061BF0B465A46304630
:103DD000394601F027FE084A084B01F03DFB4246F8
:103DE000534601F01FFE08B02A462346BDE8F04DB9
:103DF00001F032BBFA2D0000495555555555C5BF48
:103E0000012202F062BA002213461046114601F068
:103E1000DFBB40F2013200204FF0E04102F055BA22
:103E2000024A0020110702F050BA000001FDFFFF16
:103E300010B50446D1E9000100F002F8206010BD81
:103E4000F8B504460D466A4600F06EFE00987E30D6
:103E5000009000281EDC002213462046294601F06F
:103E60000FFD17D0002140F608004FF00000064675
:103E70002046294601F0BEFA044640F6080006EA4C
:103E800000014FF0000034F0004004BF0220FCF7B6
:103E9000BCFC29E00098FF2828DB002108464FF0F1
:103EA000000000F44006002213462046294601F097
:103EB000B7FE8CBF002501250220FCF7A6FC4FF0C1
:103EC000FF4446B1002D0CBF4FF400004FF48000BA
:103ED000B04218BF084C042108464FF00000002DE6
:103EE00004BF84F00040F8BD2046F8BD20462946B6
:103EF000BDE8F84001F07EBAFFFF7F7F10B50446B1
:103F00000A46D4E90003194600F04FFEC4E9000157
:103F100010BD30380A2801D20120704700207047B8
:103F20002DE9F04D8D4F21F0004A86B005460C4634
:103F3000BA452ADBAAEB070028430AD08848824505
:103F400001DC1AD1CDB106B02846BDE8F04DFFF72F
:103F500057BF844A844B284601F064FD07460E464D
:103F6000824A834B2846214601F05CFD06B03A4662
:103F70003346BDE8F04D01F06FBA0120FCF745FC77
:103F800006B0BDE8F04DFFF73EBF7A48824542DA01
:103F9000BAF1795F0BDA2846FFF7FFFB042808BF68
:103FA000FFF73EFF284606B02146BDE8F08D2A46C1
:103FB0000B46104601F036FD834602466E480E461B
:103FC0000B4606217844FFF74FFE5A46334601F070
:103FD00029FD804669488A465A463346042178447A
:103FE000FFF742FE5A46334601F01CFD00223B46D5
:103FF00001F032FA02460B464046514601F0E8FA1B
:104000002A46234601F00EFD06B02A462346BDE8A7
:10401000F04D01F021BA284624F0004100223D462F
:104020003B4601F033FE4FF0FF3202F04EF90646F8
:10403000024653480F460B4606217844FFF714FE0C
:1040400032463B4601F0EEFCCDE900014D483246D8
:104050003B4604217844FFF707FE32463B4601F019
:10406000E1FC00222B4601F0F7F98346029130462D
:10407000394600F0A6FF804643480D46504517DC00
:10408000DDE900015A46029B01F0A2FA42462B46A6
:1040900001F0C8FC42462B4601F0DEF9012202F095
:1040A00014F9304A304B01F0E3FE304A304B4CE01B
:1040B0004FF0000A52460B46404601F0CDF9CDE9DB
:1040C000031052462B461046194601F0ABFC32460F
:1040D0003B4601F0DBFDDDE9033201F079FA0646EB
:1040E0000F46DDE900015A46029B01F071FA834652
:1040F000009101223046394602F0E7F8194A1A4B7E
:1041000001F0C4FD06460F4601224046294602F052
:10411000DCF85A46009B01F085FC32463B4601F034
:10412000A7FE06460F4601225046294602F0CDF86A
:104130000E4DDFF858802A46434601F0A7FD32466F
:104140003B4601F0A3FD2A46434601F09FFD002CAB
:10415000D8BF81F0004106B0BDE8F08D0000F03F0F
:104160000000F07F075C143326A6913C182D4454C0
:10417000FB21F93F0000E03F502A0000662A0000C2
:10418000DA290000F02900003333EF3FFB21E93F3B
:1041900030B583B00446FCF733FB05460020CDE97B
:1041A0000000024621466846FCF7F8FD2846FCF769
:1041B0002CFBDDE9000103B030BD483000F0DCB974
:1041C0002DE9FF5F8B460EA9924691E8E003044675
:1041D0008821FCF777FA52465946204600F0F2FB58
:1041E0002A4604F11000039900F094FB3A46314648
:1041F00004F1480000F0D6F9002084F8200084F88B
:104200005C00A4F85E0084F860001399C4F8508044
:10421000C4E91591BDE8FF9F00F0EDBB2DE9F04327
:104220008FB0002504468DF8385040F2FF1700F19A
:104230002006B7E09DF8381004F1100000F04EFBA6
:1042400000281CD0606ED4F81880401CD4F8109060
:1042500060664146484600F0ABF968B1A06E414641
:10426000401CA066484600F0DBF9012808D002286F
:104270000AD003280CD00EE0E06E401CE0668FE010
:10428000206F401C206706E0606F401C606702E002
:10429000A06F401CA0674146484600F0B1F82822B4
:1042A000314604A8FCF7BAF904AA4146484600F092
:1042B000FBF980B1E06F2822401CE06704A930467A
:1042C000FCF7ACF9A16D09B13046884794F820009D
:1042D000012865D105E0D4F88000401CC4F88000B6
:1042E0005EE094F86000E8B394F85C0028B1B4F89C
:1042F0005E200020B4F84E1060E003A8CDE902056E
:10430000D4E90C01CDE90001D4E90A2304F1480005
:1043100000F0B2FD30B3012184F85C100188A4F8EC
:104320005E10236DF3B13246039938E0A36C00EBC5
:10433000800C33F83C3093423ED1A16C00EB8000FE
:1043400001EBC0005FEA00083AD0083090E80E00A8
:10435000D8F81400CDE90012CDE9023004F12801AB
:104360000FC900E01CE000F05DF801F043F8814661
:104370001649D8F81C00884204DC1549D8F8180002
:1043800001F0A0FE494601F069FE09D884F85C50AE
:10439000A4F85E50636D1BB13246494640469847CB
:1043A0007F1E06D30EA9204600F012FB00287FF4E2
:1043B00041AF0FB0BDE8F083401C80B28142B5D858
:1043C00084F85C50A4F85E50EAE700000AD7233C6A
:1043D0006666A63F002805D080F86010002100F82E
:1043E0005C1F418070470000962339220149024832
:1043F000FEF76EBD62630008080500207047704735
:1044000000280AD0002908D0DC2900D9DC218AB292
:104410000146C8230148FEF75BBD70470805002030
:10442000704700002DE9F84F1446DDE90A561F4693
:1044300000F072FB804689462846314600F06CFB4E
:1044400082468B4642464B4601F012FD05460E461B
:10445000DDE90C0122463B4601F00AFD00F05CFB61
:104460000C4600904FF0FF322846314601F02DFFF8
:1044700000F040FD06460F464FF0FF3221460098FF
:1044800001F023FF00F036FD0D4604465046594624
:1044900000F0F4FA82468B464046494600F0EEFAB8
:1044A00052465B4601F0BEFA22462B4601F0BAFAAC
:1044B00022462B4601F0B6FA04460D4632463B46EC
:1044C0001046194601F0AEFA22462B4600F0C4FF12
:1044D000002205460C46134601F068FA02D200207D
:1044E00001460BE000220B4B2846214601F098FBC9
:1044F00002D20020074901E02846214600F061FD74
:10450000FFF70EFD01B04FF03332BDE8F04F024B24
:1045100001F088BA0000F03FB04D6841144A10B570
:1045200053685B1C536009680968C94389060168C0
:1045300017D44068C4B2880702D5D068401CD06048
:10454000480702D51069401C10611068401C1060BB
:1045500021460848FFF760FE2046BDE81040FFF7FF
:104560005FBF090703D59168491C9160406810BD81
:1045700028000020D000002010B520B119B1C28859
:1045800083889A4201D3002010BD02EB82040368A5
:10459000521CC28003EBC40328221846FCF73EF8E5
:1045A000012010BD016082800021C18070470000A1
:1045B00070B590B3092931D30278242A2ED1002274
:1045C00007E0835C2A2B07D00D2B27D00A2B25D0A0
:1045D000521C8A42F5D321E084181FD00025421CCA
:1045E00003E000BF12F8013B5D40A242FAD3014450
:1045F000A01C814212D9607800F0C2FA0646A07869
:1046000000F0BEFA002E09DB002807DB40EA0610A6
:10461000C0B2854202D1012070BDFFE70020FBE758
:1046200030B5A5B078B306292ED30278242A2BD131
:10463000002213466D4609E0C45C2A2C0BD00D2CD9
:1046400009D00A2C07D0AC54521C5B1C8B4202D2FE
:10465000541C802CF0D30020A854062A14D3209098
:10466000219022902390042220A9284600F092FC59
:1046700048B1209C3CB10AA12046FBF70EFF28B1AF
:10468000012025B030BDFFE70020FAE705A1204654
:10469000FBF703FF08B10220F3E70320F1E7000076
:1046A000524D4300474741002DE9F04FC5B0144635
:1046B000002879D0002CFCD00A2975D30278242A4E
:1046C00072D1002213466E4609E0C55C2A2D0BD03C
:1046D0000D2D09D00A2D07D0B554521C5B1C8B42FE
:1046E00002D2551C802DF0D34FF0000906F802903D
:1046F000062A71D3602120A8FBF7E4FF182220A925
:10470000684600F047FC0546022865D3209E66A156
:10471000304600F07CFC48B965A1304600F077FCDB
:1047200020B965A1304600F072FCE0B3072D53D3E9
:1047300022A9269D91E8C90010B10078412806D031
:10474000002084F80090C4E902000146A8E000209F
:10475000CDE93A00CDE93C003AAA0121184600F023
:104760004DFB002839D03CAA0021384600F046FB1A
:10477000002832D046B13078532801D0732803D1B5
:104780003B9981F000413B9145B12878572801D0F1
:10479000772803D13D9981F000413D91012020709F
:1047A000DDE93A0101E005E016E0C4E90201DDE9D6
:1047B0003C0175E042A1304600F029FC50B942A10D
:1047C000304600F024FC28B941A1304600F01FFC1F
:1047D000002802D00A2D03D2002045B0BDE8F08F9A
:1047E00022983A90DDE923803C90DDE92601DDE95D
:1047F0002865259F8B4608B1FBF738FE82465FEAA5
:104800000B0001D0FBF732FE20763EB1307828B1A4
:104810003046FFF7BDFC00F0EDFD00E02E48E06102
:104820003DB1287828B12846FFF7B2FC00F0E2FD40
:1048300000E000202062BAF1000F81DD0020CDE908
:104840003E00CDE940003EAA01213A9800F0D6FA98
:104850000028C2D040AA00213C9800F0CFFA0028DE
:10486000BBD0B8F1000F09D098F80000532801D050
:10487000732803D13F9981F000413F9147B13878C7
:10488000572801D0772803D1419981F00041419107
:1048900001202070DDE93E01C4E90201DDE94001AB
:1048A000C4E90401012098E7244750524D43000019
:1048B00024474E524D430000244244524D430000D1
:1048C000244750474741000024474E4747410000D6
:1048D0002442444747410000000080BF30B5002219
:1048E000242900D18260836845685C1CAC4208D2F0
:1048F000056884600A29E954846803681A5502D05F
:1049000006E0826004E08068062801D9012030BDFD
:10491000002030BDC0E90012002181607047000016
:1049200070B5FDF75DFE234C0546606885423FD3B8
:1049300001212148FDF74AFE20B10026207818B158
:104940002EB134E00126F9E75EB3A5612FE0A0693E
:10495000291A05F1780060600020B1F5FA6F07D3DD
:10496000A0700120607041F288302844E06105E0C9
:104970006178A278114308D06070A07000210F48C0
:10498000FFF728FD00F0A8FB0EE00C4890F860004F
:1049900040B1002529460948FFF71CFD00F09CFBAB
:1049A00015B104E00125F5E705A000F053F82670E5
:1049B00070BD00000800002000080140D000002069
:1049C00030000000C0E9001200218160C160704722
:1049D00010B50446C068A268904201D1002010BD05
:1049E000E2682068805C0870E168204600F0E8F921
:1049F000E060012010BD70B50D4604000AD02068AB
:104A000040B1606830B1A168204600F0D9F9E16892
:104A1000814201D1002070BDA26821688D54A06040
:104A2000012070BD10B504000FD0FBF748FD82B225
:104A3000C82321460548FEF74BFA6423BDE8104021
:104A4000032203490148FEF743BA10BD5005002078
:104A5000A063000800B589B0002808D0034605A26D
:104A600020216846FBF7D0FB6846FFF7DBFF09B063
:104A700000BD0000706167652025730000B5244B00
:104A800021F0004287B09A42DCBF0022134629DDA4
:104A9000204B9A4208D140B94FF00100FBF7B5FE18
:104AA000FFF7B1F907B000BD03DBFFF7A9F907B0C5
:104AB00000BD02AAFEF796FE10F0030104BF0DF13F
:104AC000080C9CE80F000DD0012001290ED002290E
:104AD00014D00DF1080C00909CE80F00FFF71AF9B4
:104AE00007B000BDFFF742F807B000BD0DF1080C9C
:104AF00000909CE80F00FFF70DF905E00DF1080CA0
:104B00009CE80F00FFF732F807B081F0004100BDCC
:104B1000FB21E93F0000F07F014A024B00F082BF19
:104B2000399D52A246DF913F10B514460022226003
:104B3000114A21F000439342A8BF10BD53EA00027E
:104B400008BF10BDB3F5801FA8BF226807DA362260
:104B500001F0BBFB6FF0350221F000432260DFF86B
:104B60001CC06FF31E510CEB23531A4441F0FF514C
:104B700041F00051226010BD0000F07F02FCFFFFF9
:104B8000A0F13001092901D808467047A0F1410180
:104B9000052901D837387047A0F16101052901D8EE
:104BA000573870474FF0FF3070472DE9F041064607
:104BB0000C4640F2FF75174635EA14502BD0002200
:104BC0001346304600F05CFE25D03A46304621467A
:104BD00001F07BFB06460C4635EA145010D000224B
:104BE0001346304600F04CFE15D10220FBF70DFEB7
:104BF000FFF716F90A46214662F31E01BDE8F0816F
:104C00000220FBF702FEFFF704F90A46214662F391
:104C10001E01BDE8F08130462146BDE8F08100006C
:104C200090B0FDF7EBFCFEF7C1FCFEF701FCFEF7D0
:104C300063FCFEF73FFCFEF77BFCFEF795FC00F003
:104C400073FA00F049FA00F0F2F9062000F0F0F9EA
:104C50004DA0FFF7E7FE4EA0FFF7E4FE4EA0FFF7E2
:104C6000E1FE4FA0FFF7F6FE4E4C4FF000094E4A12
:104C700084F80090C4F8189084F80190C4F81C904F
:104C800084F8029007CA03AB83E8070047490A2269
:104C900080208DE80700A1F180034200A1F5C071DA
:104CA000A1F18800FFF78CFA00214148FFF792FB41
:104CB0003D4928220C3106A8FBF7B0FC06A93C4868
:104CC000FFF77BFAFFF79BFB3A480068C16841F0A9
:104CD0002001C160FFF788FBFDF782FC364EE060E3
:104CE0003168C4E90410DFF8C8A04FF47A774FF4B4
:104CF000FA7800BFFDF774FCE168411AB9420BD3A2
:104D000032682369D21A4FF47A735A43B2FBF1F135
:104D1000A1603168C4E90301FFF770FBFFF700FEF3
:104D2000607898B1FDF75CFCE169401A0ED484F814
:104D300001900120A07021A0FFF78CFE7820FDF7E4
:104D400043FB19481E21213800F0A0F91848FFF74D
:104D500065FAFFF753FBFDF743FC05466069281A27
:104D600040450CD3DAF87C1009B1012200E00022A2
:104D70000F489AF86010203000F0FEF9656132208B
:104D8000FDF722FBB6E70000626B636D643D300007
:104D9000736C6565703D300064696D3D3130300085
:104DA0003000000008000020C4630008D802002082
:104DB000D00000200805002028000020320000005C
:104DC0004068491CB1FBF0F200FB12107047000074
:104DD00010B5044606A0FFF73DFE206A00F0A4FAD5
:104DE000606A002803D0BDE8104000F03BB910BD58
:104DF0003100000000F07EB970470000F8B517469A
:104E0000060018D03078B0B109B1022400E00324C4
:104E10000025FBF7F1F90168A01C00E06D1C725D34
:104E20008A5C202A01D18542F8DB854203DB002021
:104E30000090042C01D30020F8BD2246314668467C
:104E4000FBF7A7FB6846FBF711FB05463019FFF798
:104E50009FF90022074B00F0BBFB06460C46284694
:104E600000F079FD3246234600F0F6FAC7E900016A
:104E70000120F8BD00004E400FB42DE9FF5F002572
:104E800093460746A8462C46DDF8509022E000BF26
:104E9000386804EB840100EBC10606F108000DF14F
:104EA000440A0FC88DE80F009AE80E005846FFF735
:104EB000B9FA00F09FFA8246B16901F0CFF807D83D
:104EC00025B14146504601F0C9F801D23546D046D9
:104ED000641CA4B2F888A042DAD825B1B9F1000F59
:104EE00001D0C9F8008004B02846BDE8F01F5DF885
:104EF00014FB000000B5254B21F0004287B09A4218
:104F000003DC0022134600922BE0214B9A4208D189
:104F100040B94FF00100FBF778FCFEF774FF07B0D3
:104F200000BD03DBFEF76CFF07B000BD02AAFEF771
:104F300059FC10F003014FF001000DD0012914D0ED
:104F400002291AD00DF1080C9CE80F00FEF70EFEA6
:104F500007B081F0004100BD0DF1080C00909CE805
:104F60000F00FEF7D7FE07B000BD0DF1080C9CE85E
:104F70000F00FEF7FBFD07B000BD0DF1080C00901F
:104F80009CE80F00FEF7C6FEE2E70000FB21E93FC8
:104F90000000F07F2DE9F041002415460E4627461B
:104FA00009E000BF46F824002C21641CFBF76BFAD3
:104FB00020B100F8017B08B1AC42F3D32046BDE834
:104FC000F0812DE9F04106460F4600F06BFE041E0D
:104FD0000D4618BF0120284320F00040C0F17F603B
:104FE00000F1E040C00F0ED0301C18BF0120384344
:104FF00020F00040C0F17F6000F1E040C00F04BF2E
:105000000120FBF702FC20462946BDE8F08170B57F
:1050100005460C460846FBF752FA0246214628464A
:10502000FBF76CFA08B1002070BD012070BD70471D
:105030000EB50A2800D90A2006A330300ECB8DE821
:105040000E008DF807006423092269460448FDF725
:105050003FFF0EBDFD000601015B76005D00000014
:10506000C004002010B5040007D0207828B12046E5
:10507000FBF725FAB0F5803F01D3002010BD81B2C7
:105080002046BDE8104000F001B800007CB50C4699
:10509000050017D0B4B10DA2A11CD2E90002CDE9E0
:1050A00000028DF802107823052269460948FDF7B1
:1050B0000FFF38B94FF44873224629460548FDF7DB
:1050C00007FF08B100207CBD01207CBDFD00000170
:1050D00000000000C004002010B580210348FBF749
:1050E000CFFA03490020087010BD00004C000020DA
:1050F000000000201CB5002000F02CF8002000F07B
:1051000032F810210020CDE900014FF6FF7303A211
:1051100016210420FEF712F91CBD000057616974C6
:10512000696E672E2E2E000010B5FDF777FF002068
:1051300000F010F8002000F016F8BDE8104001A0C3
:1051400000F016B9426569646F7520537973746510
:105150006D00000008B5002100905023A0220846F1
:10516000FDF732FF08BD08B5002100905023A022B2
:105170000846FDF729FF08BD2DE9F04FA3B004460E
:10518000E1B14CA2202102A8FBF73EF80AAF12AE13
:105190001AADECB12078237E01281FD047A2202130
:1051A0003846FBF731F849A220213046FBF72CF8AE
:1051B00048A220212846FBF727F826E00AB147A39A
:1051C00000E047A347A2202102A8FBF71DF8DDE776
:1051D00048A220213846FBF717F8E4E748A220212F
:1051E0003846FBF711F8D4E90201CDE9000148A2E5
:1051F00020213046FBF708F8D4E90401CDE900018D
:1052000045A220212846FAF7FFFF454D287838B9F6
:105210000020FFF79FFF0020FFF7A5FF0120287067
:105220000025DFF800A1AB460DF108090AEB451196
:1052300009EB45100F460646FBF796FA48B34FF6C2
:10524000FF7000EA051808F1100083B2A022414661
:105250000020CDF800B0FDF7B7FE4FF6FF73F5B1B3
:10526000012D1FD0022D05D314B12078012801D0C3
:105270004FF6E0731021CDE900B1324641460220DD
:10528000FEF75CF8314638461F22FBF742FA87F8F2
:105290001FB06D1C042DC9D323B0BDE8F08F4FF4AF
:1052A000FC63E7E7002CE5D020780128E2D140F24A
:1052B000FF73DFE74E41563A52554E004649583A81
:1052C0002D2D2020533A2575000000004E3A2D2D3B
:1052D00000000000453A2D2D000000004F4B00005B
:1052E0002D2D00004E41563A53544F5020503A2530
:1052F000730000004649583A2D2D2020533A3000C3
:105300004649583A4F4B2020533A2575000000007B
:105310004E3A252E32660000453A252E32660000B0
:10532000000000204C0000207CB5040019D00020B3
:10533000FFF710FF0020FFF716FF10260025CDE92C
:105340000056042140F2FF7322460846FDF7F6FF9F
:10535000CDE900564FF4FC6302A216210420FDF7AC
:10536000EDFF7CBD506C6179696E672E2E2E0000BA
:105370001CB5040010D00020FFF7ECFE0020FFF762
:10538000F2FE10210020CDE900014FF6FF73224606
:1053900016210420FDF7D2FF1CBD000010B5002926
:1053A0000AD00878002807D005487844FBF7DCF9D4
:1053B000002801D0002010BD0248784410BD000034
:1053C000CE180000C618000010B500290AD00878D1
:1053D000002807D005487844FBF7C6F9002801D01B
:1053E000002010BD0248784410BD0000B219000032
:1053F000AA19000021F00042A2F16052B2F5801F0C
:1054000001F0004328BFD2F17F6C0BD95FEA001C8A
:1054100043EAC20242EB507018BF704728BF20F029
:1054200001007047B2F5801FBCBF184670474FEAB5
:10543000410C1CF5001F02D2084600F00ABF70B5EF
:1054400000F09AFB00000089FFF7F6BF4FF0004024
:10545000A0F580007047000010B591EA030F48BF27
:1054600083F0004300F10C85841A71EB030C05D224
:10547000121943EB0C03001B61EB0C01DFF824E174
:105480004FEA1154A4EB135C1EEA430F18BF9EEAC7
:10549000445F73D023EA0E03DCF1200E21EA0451AD
:1054A00043F4801332D322FA0CFE10EB0E0023FAE1
:1054B0000CFE41EB0E01CCF1200E03FA0EFE10EBB8
:1054C0000E0051F10001B1F5801FCCF1200E32D257
:1054D00001EB045112FA0EF2BDE8104058BF7047BC
:1054E000401C38BF5FEA420218BF7047002814BF53
:1054F00020F0010041F100014FEA410313F5001FC4
:1055000038BF7047A1F1C04100F084BB012A43EBD2
:105510000302ACF1200CDCF11F0E32BF4FF0000E85
:1055200023FA0CF310EB030041EB0451B4EB115FD1
:10553000D0D0A1EB045101F5801149085FEA300099
:1055400001EB04510ED350F1000038BF12FA0EFEE9
:1055500008D1BDE81040C9E7401C38BF5FEA4202ED
:10556000CAD1C3E7BDE810404FEA410313F5001F5D
:1055700038BF7047A1F1C04100F04CBB9EEA445FC8
:1055800008D011EA5E0FBDE8104004BF01F00041F1
:1055900000207047BDE8104070B500F0EDFA00BF84
:1055A00064FBBE3E0000E0FF02494FF0000000F047
:1055B0005ABE00BF0000F87F491058BFC1F14041FA
:1055C0005B1058BFC3F140438B42EFF3008070473C
:1055D0002DE9C04130B4DFF8A0C23CEA111418BF75
:1055E0003CEA131400F0EC8081EA03051CEA111474
:1055F00044EAD57418BF1CEA131500F0C780A4EB69
:1056000005044FF0004545EAC12145EAC32341EABC
:10561000505143EA525304F17F74994204F5003427
:105620004FEAC0204FEAC22208BF904200F09C809F
:105630004FEA13650FF24016765D4FEA134506FBFD
:1056400005F7C7F1807706FB07F74FEAD737A7FBC7
:1056500003687642C8F58038A7FB06CE38BFA8F1AC
:10566000010807FB08E64FF0000EA6FB028CE6FBE4
:1056700003CEDCF1000CCEF1004E38BFAEF1010ECE
:10568000A6FB0C584FF000074FF00005E6FB0E8715
:10569000A1FB08C6A0FB07CE16EB0E0645F10005E0
:1056A000E1FB076515F1E04E7EBFA4F580345FEAAB
:1056B00046066D4116F1800745F100054FEA1727B0
:1056C0004FEA066647EA0567A6F1DE46B6F1805F57
:1056D0004FEA15251FD9384624F0010C05EBC4719B
:1056E000BCF1FE6F01EB0C1102D8F0BCBDE80081EB
:1056F00024425CBF01F5801E9EEAC47F02D4F0BC48
:10570000BDE80081244238D4F0BCA1F1C041BDE81D
:10571000004100F07FBA4FEAD22242EA43524FEAF8
:10572000D323A7FB02864FEAD02040EA415007FB73
:1057300003661EEA0E0F4FEAD12105FB026658BF31
:10574000A6EB0056B6EB00564FEA520E4EEAC37E69
:1057500018EB0E0E56EB530EBDD518EB02085E414A
:105760007F1C55F10005B6E74FF480154FF0000798
:105770004FF000064FF00008ADE7F0BC4FF000001E
:1057800001F1C04101F00041BDE8008111EA0C1FA8
:105790000CEA131500D00CE013EA0C1F00F0258072
:1057A0004FF00000F0BC81EA030101F00041BDE8C8
:1057B0000081F0BCBDE8004181EA030100F02ABA93
:1057C000F0BCBDE8004170B500F0D6F9097EFC3EA2
:1057D00000F007B881EA03014FF0000001F000413A
:1057E000704781EA030100F015BAF0BCBDE8004142
:1057F0004FF0000021497047FFFDFBF9F7F5F4F287
:10580000F0EEEDEBE9E8E6E4E3E1E0DEDDDBDAD85B
:10581000D7D5D4D3D1D0CFCDCCCBCAC8C7C6C5C4B9
:10582000C2C1C0BFBEBDBCBBBAB9B8B7B6B5B4B3D0
:10583000B2B1B0AFAEADACABAAA9A8A8A7A6A5A4BB
:10584000A3A3A2A1A09F9F9E9D9C9C9B9A9999987F
:105850009797969595949393929191908F8F8E8E22
:105860008D8C8C8B8B8A89898888878786858584AF
:1058700084838382828181800000FF070000F87F9B
:1058800051EA030C17D41CF5801F58BFBCF5801FCC
:1058900000F10680994218BF704708BF90427047D8
:1058A00007D711F5801F58BF13F5801F19D49942EF
:1058B0007047894270471CF5801F08D5BCF5801FD2
:1058C000F7D58B4218BF704708BF824270474FF42C
:1058D000001C1CEB410F38BF1CEB430F01D28B4265
:1058E000704770B500F048F9922449004FF000511C
:1058F0004FF08053FFF760BE4FEA41034FEA535326
:10590000A3F58063D3F11E03C8BFD3F1210C0CDDD6
:105910004FF0004242EAC12242EA505232FA03FCFE
:105920008CEAE17CACEBE1707047102BC4BF002027
:10593000704703F5787CBCF1FF3F04D06FF0004264
:1059400082EA2100704770B500F016F94992248070
:1059500000207047F2E710F0004248BF4042B0FA22
:1059600080F310FA03F10AD0C3F11D0303F580633D
:105970004FEA415002EB035202EBD12170474FF046
:1059800000007047B0FA80F310FA03F10AD0C3F1B7
:105990001D0303F580634FEA41504FEA035202EBC7
:1059A000D12170474FF000007047000051EA030C0E
:1059B00017D41CF5801F58BFBCF5801F00F106806E
:1059C000994218BF704708BF9042704707D711F53A
:1059D000801F58BF13F5801F19D499427047894220
:1059E00070471CF5801F08D5BCF5801FF7D58B428A
:1059F00018BF704708BF824270474FF4001C1CEB71
:105A0000410F38BF1CEB430F01D28B42704770B57A
:105A100000F0B2F8922449004FF000514FF080534B
:105A2000FFF7CABDDFF848C170B51CEA111E1EBFE2
:105A30001CEA13159EEA0C0F95EA0C0F00F06F801C
:105A400081EA030423EA4C134EEAD47E21EA4C1186
:105A500041F4801143F48013AE44A1FB024CA0FB3F
:105A60000365AEF17F7E361955EB0C05A1FB034CA7
:105A70004CF10003A0FB021C16EB0C06654153F130
:105A80000003094218BF46F0010613F4007F0BD152
:105A90004FEA03314FEA0530340341EA155140EA39
:105AA00016506FF003020AE04FEAC3214FEAC52007
:105AB000F40241EA555140EA56506FF0020202EBFF
:105AC0002E4201EB025585EACE710AD05FEA440C02
:105AD00018BF24F0004450F1000041F1000120EA19
